:020000040800F2
:10000000800C002055020008412B0008F928000848
:100010003D2B00084D040008413800080000000096
:10002000000000000000000000000000B52B0008E8
:100030005104000800000000B12B0008B92B000893
:100040006F0200086F0200086F0200086F020008CC
:100050006F0200086F0200086F0200086F020008BC
:100060006F0200086F0200086F0200086F020008AC
:100070006F0200086F0200086F0200086F0200089C
:100080006F0200086F0200086F0200086F0200088C
:100090006F0200086F0200086F0200086F0200087C
:1000A0006F020008912C00086F0200086F02000820
:1000B0006F020008A12C00086F0200086F02000800
:1000C0006F0200086F0200086F0200086F0200084C
:1000D0006F020008313800086F0200086F02000844
:1000E0006F0200086F0200086F0200086F0200082C
:1000F000B12C00086F0200086F0200086F020008B0
:100100006F0200086F0200086F0200086F0200080B
:100110006F0200086F0200086F0200086F020008FB
:100120006F0200086F0200086F0200086F020008EB
:100130006F02000800000000000000006F020008CD
:100140006F0200086F0200086F0200086F020008CB
:100150006F0200086F0200086F0200086F020008BB
:100160006F0200086F0200086F0200086F020008AB
:100170006F0200086F02000800000000000000008D
:100180006F0200086F02000800F002F800F052F859
:1001900014A696E8000CB244B344DA4501D100F04D
:1001A00049F8BAE80F000FA696E83000A5EB040561
:1001B00004EB0607AAEB0704A7F101074FEA1515A0
:1001C0004FEA3414A4F10104AC4201D300F032F838
:1001D00013F0010F18BFFB1A43F0010300F001F800
:1001E000DBE71847F037000010380000103A24BF52
:1001F00078C878C1FAD8520724BF30C830C144BF8C
:1002000004680C6070470000704700000023002461
:1002100000250026103A28BF78C1FBD8520728BF16
:1002200030C148BF0B6070471FB503F0AEFB1FBD68
:1002300010B510BD00F0D0F81146FFF7F5FF03F040
:1002400061FB00F0EEF803B4FFF7F2FF03BC00F02F
:10025000F5F800000948804709480047FEE7FEE737
:10026000FEE7FEE7FEE7FEE7FEE7FEE7FEE7FEE766
:1002700004480549054A064B704700007D2C0008DC
:100280008901000880060020800C002080080020E2
:100290008008002053EA020C00F069802DE9F04B41
:1002A0004FF00006002B1FBFB3FA83F503FA05F4E5
:1002B00024FA05F65E4012BF1643B2FA82F502FA3E
:1002C00005F4C5F120051EBF22FA05FC44EA0C0422
:1002D000203556EA044C4FEA144418BF641C4FF012
:1002E00000084FF00009904271EB030C39D300294C
:1002F00019BFB1FA81F701FA07F6B0FA80F700FAF0
:1003000007F6C7F120071EBF20FA07FC46EA0C06D5
:100310002037B6FBF4FCA7EB0507103F07F01F0BD7
:10032000CBF120062CFA06F60CFA0BFB44BFB346C1
:100330000026202FA4BF5E464FF0000B5BEA060CA0
:1003400008BF4FF0010B19EB0B0948EB0608ABFB9C
:10035000027C06FB02CC0BFB03CCC01B71EB0C0137
:10036000C1E70B46024641464846BDE8F08B13B54F
:10037000084318BF4FF0FF300146AFF30080BDE8DF
:100380001C4070474FF0000200B513469446964655
:10039000203922BFA0E80C50A0E80C50B1F1200198
:1003A000BFF4F7AF090728BFA0E80C5048BF0CC046
:1003B0005DF804EB890028BF40F8042B08BF7047A4
:1003C00048BF20F8022B11F0804F18BF00F8012B16
:1003D0007047704770477047754600F02BF8AE467F
:1003E00005006946534620F00700854618B020B541
:1003F000FFF73EFFBDE820404FF000064FF000073A
:100400004FF000084FF0000BAC46ACE8C009ACE878
:10041000C009ACE8C009ACE8C00921F007018D466D
:10042000704710B50446AFF300802046BDE8104089
:10043000FFF709BF0048704740000020014918201D
:10044000ABBEFEE72600020070470000FFE7FEE7B4
:100450007047000072B6FFE7FEE7000080B584B089
:1004600002900298806D019000F098FA0090029836
:1004700090F8350002280DD0FFE7029980204865EA
:10048000FFE70299002081F83400FFE701208DF892
:100490000F0055E002980168086820F01600086017
:1004A00002980168486920F0800048610298006C59
:1004B00020B9FFE70298806C38B1FFE70298016825
:1004C000086820F008000860FFE7029801680868E3
:1004D00020F001000860FFE7029800680068C0078C
:1004E000C8B1FFE700F05AFA0099401A062811D364
:1004F000FFE70299202048650299032081F8350022
:10050000FFE70299002081F83400FFE703208DF80F
:100510000F0015E0E0E70298C16D3F208840019987
:1005200088600299012081F83500FFE702990020D8
:1005300081F83400FFE7FFE700208DF80F00FFE7A8
:100540009DF80F0004B080BD82B00090009890F834
:100550003500022807D0FFE7009980204865012078
:100560008DF807000EE00099052081F8350000980D
:100570000168086820F001000860FFE700208DF89E
:100580000700FFE79DF8070002B070478EB00D909E
:100590000C9100200A90099008900B90FFE70B98AF
:1005A0000F2800F2CC81FFE70B99012088400A90C8
:1005B0000C9800680A990840099009980A9988429D
:1005C00040F0B881FFE70C98406800F00300012874
:1005D00007D0FFE70C98406800F0030002282FD1F5
:1005E000FFE70D98806808900B984100032000FAFF
:1005F00001F10898884308900C98C0680B9949004D
:1006000000FA01F108980843089008980D9988604D
:100610000D98406808900B99012000FA01F10898A4
:10062000884308900C984068C0F300100B9900FABA
:1006300001F108980843089008980D994860FFE771
:100640000C98406800F00300032818D0FFE70D98CD
:10065000C06808900B984100032000FA01F1089847
:10066000884308900C9880680B99490000FA01F1C2
:1006700008980843089008980D99C860FFE70C98FF
:10068000406800F00300022826D1FFE70D980B997F
:100690006FF0030202EA51010844006A08900B98C7
:1006A00000F0070081000F2000FA01F1089888434C
:1006B00008900C9800690B9901F00701890000FA75
:1006C00001F108980843089008980D990B9B02EADD
:1006D000530211440862FFE70D98006808900B98D8
:1006E0004100032000FA01F10898884308900C9813
:1006F000406800F003000B99490000FA01F10898E6
:100700000843089008980D9908600C988079800734
:10071000002800F00E81FFE7FFE70020079043F676
:100720004400C4F20200016841F4804101600068A5
:1007300000F4804007900798FFE70B9820F0030033
:1007400043F60801C4F20101405808900B9800F0EC
:10075000030081000F2000FA01F1089888430890F7
:100760000D980021C4F20201884203D1FFE7002066
:1007700006905EE00D9840F20041C4F2020188420A
:1007800003D1FFE70120059050E00D9840F60001ED
:10079000C4F20201884203D1FFE70220049042E044
:1007A0000D9840F60041C4F20201884203D1FFE7F0
:1007B0000320039034E00D9841F20001C4F20201DD
:1007C000884203D1FFE70420029026E00D9841F211
:1007D0000041C4F20201884203D1FFE705200190E5
:1007E00018E00D9841F60001C4F20201884203D1DD
:1007F000FFE7062000900AE00D9941F60042C4F29E
:1008000002020820914208BF07200090FFE70098ED
:100810000190FFE701980290FFE702980390FFE73D
:1008200003980490FFE704980590FFE70598069069
:10083000FFE70698C0B20B9901F00301890000FAA6
:1008400001F108980843089008980B9921F00301DA
:1008500043F60802C4F20102885043F60840C4F28D
:1008600001000068089009990898884308900C983E
:100870008079C006002805D5FFE709990898084344
:100880000890FFE7089843F60841C4F201010860A8
:1008900043F60C40C4F201000068089009990898DA
:1008A000884308900C9880798006002805D5FFE7DA
:1008B0000999089808430890FFE7089843F60C4107
:1008C000C4F20101086043F60440C4F2010000686C
:1008D000089009990898884308900C9880798007B7
:1008E000002805D5FFE70999089808430890FFE715
:1008F000089843F60441C4F20101086043F6004041
:10090000C4F201000068089009990898884308908B
:100910000C988079C00728B1FFE709990898084327
:100920000890FFE7089843F60041C4F2010108600F
:10093000FFE7FFE7FFE70B9801300B902FE60EB0C3
:100940007047000083B00290ADF80610029840692D
:100950000090009ABDF8060002EA0001904340EAC8
:1009600001400299886103B07047000082B0019095
:10097000ADF802108DF801209DF8010028B1FFE7C5
:10098000BDF802000199886105E0BDF8020000048D
:1009900001998861FFE702B07047000040F27C6077
:1009A000C2F200000068704740F20400C2F200008A
:1009B000027840F27C61C2F20001086810440860CD
:1009C0007047000080B543F60041C4F20201086898
:1009D00040F400700860086840F4806008600868AF
:1009E00040F480700860032000F0C0F80F2000F091
:1009F00005F800F071F8002080BD000080B58CB0D3
:100A00000B90002005900490FFE70020019043F632
:100A10004400C4F20200016841F002010160006874
:100A200000F0020001900198FFE706A803A900F07A
:100A3000D7F900F017FA4000059005984DF683614C
:100A4000C4F21B31A0FB01014FF0FF3000EB9140DD
:100A5000049040F23010C2F2000040F20041C4F2B3
:100A60000101016040F2E731C16004994160002159
:100A700001618160816100F075FE8DF80B009DF8C9
:100A80000B0028BBFFE740F23010C2F2000000F07C
:100A900005FF8DF80B009DF80B00C0B9FFE72C2077
:100AA00000F040F80B980F280CD8FFE70B992C208A
:100AB000002200F041F80B9840F20801C2F2000158
:100AC000086003E001208DF80B00FFE7FFE7FFE778
:100AD0009DF80B000CB080BD82B0FFE700200190B4
:100AE00043F64400C4F20200016841F48041016011
:100AF000006800F4804001900198FFE7FFE70020C4
:100B0000009043F64000C4F20200016841F08051B9
:100B10000160006800F0805000900098FFE702B08C
:100B20007047000080B582B08DF807009DF907007E
:100B300002F088FE02B080BD80B586B08DF8170047
:100B4000049103920020029002F094FE02909DF91D
:100B50001700019002980499039A01F0F3FF0146EF
:100B6000019802F08FFE06B080BD000080B582B013
:100B70000190019802F0A8FE02B080BD80B584B05B
:100B800002900191029820B9FFE701208DF80F0033
:100B900021E1019843F60041C4F20201096801F025
:100BA0000701884212D9FFE7019943F60040C4F2D9
:100BB00002000170006800F007000199884204D02B
:100BC000FFE701208DF80F0005E1FFE702980078AC
:100BD000800700282AD5FFE7029800784007002800
:100BE00009D5FFE743F60801C4F20201086840F4A2
:100BF000E0500860FFE7029800780007002809D558
:100C0000FFE743F60801C4F20201086840F46040BF
:100C10000860FFE743F60801C4F20201086820F00B
:100C2000F000029A926810430860FFE7029800788B
:100C3000C00700286ED0FFE702984068012811D154
:100C4000FFE743F60000C4F20200006800F4003140
:100C50000020B0EB514F04D1FFE701208DF80F00C9
:100C6000B9E02CE002984068022805D0FFE702981E
:100C70004068032811D1FFE743F60000C4F20200E8
:100C8000006800F000710020B0EB516F04D1FFE765
:100C900001208DF80F009EE010E043F60000C4F242
:100CA0000200006800F002010020B0EB510F04D1F7
:100CB000FFE701208DF80F008DE0FFE7FFE743F627
:100CC0000801C4F20201086820F00300029A526889
:100CD00010430860FFF762FE0090FFE743F608004C
:100CE000C4F20200006800F00C0002994968B0EB01
:100CF000810F0ED0FFE7FFF751FE0099401A41F235
:100D00008931884204D3FFE703208DF80F0062E0A9
:100D1000E4E7FFE7019843F60041C4F202010968E5
:100D200001F00701884212D2FFE7019943F6004023
:100D3000C4F202000170006800F0070001998842C7
:100D400004D0FFE701208DF80F0044E0FFE7029890
:100D50000078400700280CD5FFE743F60801C4F2ED
:100D60000201086820F4E050029AD268104308603B
:100D7000FFE702980078000700280DD5FFE743F64B
:100D80000801C4F20201086820F46040029A126966
:100D900040EAC2000860FFE700F076F843F6080179
:100DA000C4F202010968C9B20A0943F6A411C0F6E7
:100DB0000001895CC84040F20001C2F200010860F5
:100DC00040F20800C2F200000068FFF717FE0020A2
:100DD0008DF80F00FFE79DF80F0004B080BD000004
:100DE00082B00190009101990F20086043F608003D
:100DF000C4F20200016801F00301019A5160016828
:100E000001F0F001019A9160016801F4E051019A4A
:100E1000D160006800F46040C0080199086143F6A1
:100E20000040C4F20200006800F00700009908606A
:100E300002B0704740F20000C2F200000068704744
:100E400080B5FFF7F7FF43F60801C4F20201096815
:100E5000C1F3822243F6B411C0F60001895CC84098
:100E600080BD000080B5FFF7E5FF43F60801C4F23E
:100E70000201096889B24A0B43F6B411C0F60001B9
:100E8000895CC84080BD000080B586B00020059018
:100E900004900390029043F60800C4F20200006838
:100EA00000F00C000146019140B1FFE701980428D1
:100EB0000AD0FFE7019808280CD04FE042F200402A
:100EC000C0F2F40002904FE047F64000C0F27D10FF
:100ED000029049E043F60400C4F20200016801F008
:100EE0003F01059100684002002813D5FFE743F653
:100EF0000400C4F202000068C0F3881047F6400105
:100F0000C0F27D11A0FB0101059A0023FFF7C2F991
:100F1000049012E043F60400C4F202000068C0F33B
:100F2000881042F20041C0F2F401A0FB0101059AD1
:100F30000023FFF7AFF90490FFE743F60400C4F283
:100F40000200006800F44031022000EBD130039031
:100F500004980399B0FBF1F0029005E042F20040E2
:100F6000C0F2F4000290FFE7029806B080BD0000D6
:100F700080B586B00490049820B9FFE701208DF871
:100F8000170050E304980078C007002800F0A580FF
:100F9000FFE743F60800C4F20200006800F00C000E
:100FA000042813D0FFE743F60800C4F202000068EB
:100FB00000F00C0008281ED1FFE743F60400C4F23D
:100FC000020000684002002815D5FFE743F6000044
:100FD000C4F20200006800F400310020B0EB514F71
:100FE00008D0FFE70498406820B9FFE701208DF89A
:100FF000170018E370E0FFE704984068B0F5803F01
:1010000009D1FFE743F60001C4F20201086840F489
:101010008030086020E004984068B0F5A02F0DD122
:10102000FFE743F60001C4F20201086840F48020A3
:101030000860086840F4803008600CE043F6000166
:10104000C4F20201086820F480300860086820F4C7
:1010500080200860FFE7FFE7FFE704984068E8B1F9
:10106000FFE7FFF79BFC0390FFE743F60000C4F2A5
:101070000200006800F400310020B0EB514F0CD1A9
:10108000FFE7FFF78BFC0399401A652804D3FFE7BD
:1010900003208DF81700C6E2E7E71CE0FFF77EFCAF
:1010A0000390FFE743F60000C4F20200006800F47A
:1010B00000310020B0EB514F0CD0FFE7FFF76EFC82
:1010C0000399401A652804D3FFE703208DF8170021
:1010D000A9E2E7E7FFE7FFE7FFE70498007880076A
:1010E000002840F19680FFE743F60800C4F20200B2
:1010F000006810F00C0F13D0FFE743F60800C4F2AD
:101100000200006800F00C0008282CD1FFE743F62D
:101110000400C4F2020000684002002823D4FFE764
:1011200043F60000C4F20200006800F00201002053
:10113000B0EB510F09D0FFE70498C068012804D034
:10114000FFE701208DF817006DE243F60001C4F2BD
:101150000201086820F0F800049A126940EAC2000F
:101160000860FFE754E00498C06870B3FFE700210F
:10117000C4F2472101200860FFF710FC0390FFE74D
:1011800043F60000C4F20200006800F002010020F3
:10119000B0EB510F0CD1FFE7FFF700FC0399401AA9
:1011A000032804D3FFE703208DF817003BE2E7E7AD
:1011B00043F60001C4F20201086820F0F800049A26
:1011C000126940EAC200086021E00021C4F2472110
:1011D00000200860FFF7E2FB0390FFE743F6000002
:1011E000C4F20200006800F002010020B0EB510FD1
:1011F0000CD0FFE7FFF7D2FB0399401A032804D372
:10120000FFE703208DF817000DE2E7E7FFE7FFE7B0
:10121000FFE704980078000700284BD5FFE7049803
:10122000406918B3FFE740F68061C4F2472101200E
:101230000860FFF7B3FB0390FFE743F67400C4F2C6
:101240000200006800F002010020B0EB510F0CD149
:10125000FFE7FFF7A3FB0399401A032804D3FFE736
:1012600003208DF81700DEE1E7E722E040F6806119
:10127000C4F2472100200860FFF790FB0390FFE7CE
:1012800043F67400C4F20200006800F0020100207E
:10129000B0EB510F0CD0FFE7FFF780FB0399401A2A
:1012A000032804D3FFE703208DF81700BBE1E7E72D
:1012B000FFE7FFE7049800784007002840F1CE8060
:1012C000FFE700208DF8070043F64000C4F202005B
:1012D0000068C000002815D4FFE7FFE70020009059
:1012E00043F64000C4F20200016841F08051016001
:1012F000006800F0805000900098FFE701208DF812
:101300000700FFE747F20000C4F200000068C005D4
:10131000002822D4FFE747F20001C4F20001086868
:1013200040F480700860FFF739FB0390FFE747F255
:101330000000C4F200000068C00500280CD4FFE7DC
:10134000FFF72CFB0399401A032804D3FFE703207F
:101350008DF8170067E1EAE7FFE7FFE70498806888
:10136000012809D1FFE743F67001C4F202010868C1
:1013700040F0010008601FE00498806805280DD146
:10138000FFE743F67001C4F20201086840F0040070
:101390000860086840F0010008600CE043F6700146
:1013A000C4F20201086820F001000860086820F01B
:1013B00004000860FFE7FFE7FFE704988068F8B1E2
:1013C000FFE7FFF7EBFA0390FFE743F67000C4F284
:1013D0000200006800F002010020B0EB510F0ED1B6
:1013E000FFE7FFF7DBFA0399401A41F2893188429F
:1013F00004D3FFE703208DF8170014E1E5E71EE0B2
:10140000FFF7CCFA0390FFE743F67000C4F2020046
:10141000006800F002010020B0EB510F0ED0FFE792
:10142000FFF7BCFA0399401A41F28931884204D38C
:10143000FFE703208DF81700F5E0E5E7FFE79DF8EB
:101440000700012809D1FFE743F64001C4F2020179
:10145000086820F080500860FFE7FFE70498806983
:10146000002800F0DC80FFE743F60800C4F2020029
:10147000006800F00C00082800F08580FFE7049861
:10148000806902285CD1FFE76021C4F24721002077
:101490000860FFF783FA0390FFE743F60000C4F209
:1014A0000200006800F000710020B0EB516F0CD01A
:1014B000FFE7FFF773FA0399401A032804D3FFE705
:1014C00003208DF81700AEE0E7E70499C869D1F86A
:1014D00020C04B6A8A6A40EA0C0040EA8310D203BB
:1014E0004FF6FF739A43A2F580321043C96A40EA6F
:1014F000016043F60401C4F2020108606021C4F2F5
:10150000472101200860FFF749FA0390FFE743F6FF
:101510000000C4F20200006800F000710020B0EB8F
:10152000516F0CD1FFE7FFF739FA0399401A0328EE
:1015300004D3FFE703208DF8170074E0E7E721E00C
:101540006021C4F2472100200860FFF727FA0390CA
:10155000FFE743F60000C4F20200006800F00071EB
:101560000020B0EB516F0CD0FFE7FFF717FA03999B
:10157000401A032804D3FFE703208DF8170052E038
:10158000E7E7FFE74AE004988069012804D1FFE714
:1015900001208DF8170046E043F60400C4F2020073
:1015A0000068029004988069012831D0FFE7029812
:1015B00000F480000499C969884229D1FFE70298A4
:1015C00000F03F000499096A884221D1FFE70298A0
:1015D00047F6C07108400499496AB0EB811F17D1E2
:1015E000FFE7029800F440300499896AC9034FF676
:1015F000FF729143A1F58031884209D1FFE702983B
:1016000000F070600499C96AB0EB016F04D0FFE785
:1016100001208DF8170006E0FFE7FFE7FFE7002055
:101620008DF81700FFE79DF8170006B080BD000099
:1016300081B0009001B0704781B0009001B0704758
:1016400085B003900291FFE7039890F83C000128D1
:1016500004D1FFE702208DF813007EE003990120FA
:1016600081F83C00FFE7FFE70399022081F83D0085
:1016700003980068406801900398006880680090B3
:10168000019820F0700001900298016801980843C9
:101690000190019803990968486003980068002147
:1016A000C4F2010188423CD0FFE703980068B0F122
:1016B000804F36D0FFE70398006840F20041C4F243
:1016C000000188422DD0FFE70398006840F6000132
:1016D000C4F20001884224D0FFE70398006840F676
:1016E0000041C4F2000188421BD0FFE70398006864
:1016F00040F20041C4F20101884212D0FFE7039892
:10170000006844F20001C4F20101884209D0FFE7F9
:101710000398006841F60001C4F2000188420ED12E
:10172000FFE7009820F08000009002984168009840
:10173000084300900098039909688860FFE70399BF
:10174000012081F83D00FFE70399002081F83C006B
:10175000FFE700208DF81300FFE79DF8130005B0A8
:101760007047000080B582B00090009820B9FFE774
:1017700001208DF807003FE0009890F83D0040B947
:10178000FFE70099002081F83C00009800F038F84D
:10179000FFE70099022081F83D00009951F8040B01
:1017A00001F08EFA0099012081F84600FFE70099C8
:1017B000012081F83E00009981F83F00009981F8EE
:1017C0004000009981F84100FFE7FFE70099012000
:1017D00081F84200009981F84300009981F84400A3
:1017E000009981F84500FFE70099012081F83D004C
:1017F00000208DF80700FFE79DF8070002B080BDCC
:1018000080B586B00590059800680021C4F20101FA
:1018100088421BD1FFE7FFE70020049043F6440015
:10182000C4F20200016841F001010160006800F0AB
:10183000010004900498FFE719200290002211464D
:10184000FFF77AF90298FFF76DF924E00598006830
:1018500040F20041C4F2000188421BD1FFE7FFE7DC
:101860000020039043F64000C4F20200016841F0FA
:1018700002010160006800F0020003900398FFE796
:101880001D20019000221146FFF756F90198FFF73D
:1018900049F9FFE7FFE706B080BD000083B0019083
:1018A000019890F83D00012804D0FFE701208DF851
:1018B0000B006AE00199022081F83D00019801685F
:1018C000C86840F00100C860019800680021C4F2B7
:1018D000010188423CD0FFE701980068B0F1804FD9
:1018E00036D0FFE70198006840F20041C4F20001E1
:1018F00088422DD0FFE70198006840F60001C4F24D
:101900000001884224D0FFE70198006840F60041BA
:10191000C4F2000188421BD0FFE70198006840F242
:101920000041C4F20101884212D0FFE7019800682B
:1019300044F20001C4F20101884209D0FFE7019896
:10194000006841F60001C4F20001884212D1FFE7AD
:1019500001980068806800F0070000900098062851
:1019600007D0FFE701980168086840F001000860AF
:10197000FFE706E001980168086840F00100086090
:10198000FFE700208DF80B00FFE79DF80B0003B088
:101990007047000080B586B00490039100208DF858
:1019A0000B00FFE7049890F83C00012804D1FFE702
:1019B00002208DF81700ABE00499012081F83C006B
:1019C000FFE7FFE70499022081F83D0004980068D2
:1019D00080680190019820F077000190019820F430
:1019E0007F40019001980499096888600398006815
:1019F0000090002872D0FFE7009810286ED0FFE713
:101A0000009820286AD0FFE70098302866D0FFE7CA
:101A10000098402855D0FFE70098502837D0FFE7BE
:101A20000098602840D0FFE7009870280BD0FFE7AF
:101A30000098B0F5805F05D0FFE70098B0F5005F33
:101A400016D052E055E004980068039B5A689968E4
:101A5000DB6801F007FA049800688068019001983B
:101A600040F077000190019804990968886040E08F
:101A700004980068039B5A689968DB6801F0F2F9E2
:101A800004980168886840F48040886031E00498D8
:101A90000068039A5168D26801F0D0FB049800688E
:101AA000502101F0F9F924E004980068039A516884
:101AB000D26801F0EBFB04980068602101F0ECF9BA
:101AC00017E004980068039A5168D26801F0B6FBE9
:101AD00004980068402101F0DFF90AE004980068EA
:101AE0000399096801F0D8F903E001208DF80B0093
:101AF000FFE70499012081F83D00FFE704990020E9
:101B000081F83C00FFE79DF80B008DF81700FFE718
:101B10009DF8170006B080BD81B0009001B07047FD
:101B200080B584B0039003980068C0680290039861
:101B30000068006901909DF804008007002824D502
:101B4000FFE79DF80800800700281DD5FFE70398F0
:101B500001686FF00200086103990120087703987B
:101B600000688069800720B1FFE70398FFF7D4FF82
:101B700006E0039800F016F9039800F00BFAFFE76F
:101B8000039900200877FFE7FFE79DF8040040076E
:101B9000002825D5FFE79DF80800400700281ED53E
:101BA000FFE7039801686FF00400086103990220C1
:101BB000087703980068806910F4407F04D0FFE73D
:101BC0000398FFF7A9FF06E0039800F0EBF80398ED
:101BD00000F0E0F9FFE7039900200877FFE7FFE74F
:101BE0009DF804000007002824D5FFE79DF80800B1
:101BF000000700281DD5FFE7039801686FF0080073
:101C0000086103990420087703980068C069800779
:101C100020B1FFE70398FFF77FFF06E0039800F08D
:101C2000C1F8039800F0B6F9FFE7039900200877A0
:101C3000FFE7FFE79DF80400C006002825D5FFE771
:101C40009DF80800C00600281ED5FFE7039801682C
:101C50006FF0100008610399082008770398006866
:101C6000C06910F4407F04D0FFE70398FFF754FFEA
:101C700006E0039800F096F8039800F08BF9FFE770
:101C8000039900200877FFE7FFE79DF80400C007ED
:101C900078B1FFE79DF80800C00748B1FFE7039857
:101CA00001686FF001000861039800F077F9FFE721
:101CB000FFE79DF804000006002810D5FFE79DF817
:101CC00008000006002809D5FFE7039801686FF0B7
:101CD000800008610398FFF7ABFCFFE7FFE79DF882
:101CE00004004006002810D5FFE79DF808004006D4
:101CF000002809D5FFE7039801686FF040000861EC
:101D0000039800F05DF9FFE7FFE79DF80400800607
:101D1000002810D5FFE79DF808008006002809D5A7
:101D2000FFE7039801686FF0200008610398FFF750
:101D300083FCFFE7FFE704B080BD000080B588B0FA
:101D40000790002006900590049003900290079859
:101D5000006840F20041C4F20001884220D1FFE750
:101D6000FFE70020019043F63000C4F20200016852
:101D700041F001010160006800F00100019001984C
:101D8000FFE7C020029002200390002104910591FA
:101D900006900020C4F2020002A9FEF7F7FBFFE75D
:101DA00008B080BD81B0009001B0704780B586B0AA
:101DB00004900391029200208DF80700FFE7049839
:101DC00090F83C00012804D1FFE702208DF81700AD
:101DD00089E00499012081F83C00FFE7FFE70298C1
:101DE00000900C2800F270800099DFE801F0076D88
:101DF0006D6D206D6D6D3A6D6D6D530004980068CA
:101E0000039901F05FF804980168886940F00800C0
:101E1000886104980168886920F00400886103984B
:101E200002690498016888691043886150E0049849
:101E30000068039901F0BCF804980168886940F4CF
:101E40000060886104980168886920F48060886176
:101E50000398026904980168886940EA0220886151
:101E600036E004980068039901F01CF904980168B1
:101E7000C86940F00800C86104980168C86920F08A
:101E80000400C8610398026904980168C869104396
:101E9000C8611DE004980068039901F07DF9049879
:101EA0000168C86940F40060C86104980168C869A5
:101EB00020F48060C8610398026904980168C869C9
:101EC00040EA0220C86103E001208DF80700FFE727
:101ED000FFE70499002081F83C00FFE79DF8070028
:101EE0008DF81700FFE79DF8170006B080BD0000D1
:101EF00080B582B00090009820B9FFE701208DF8EE
:101F000007003FE0009890F83D0040B9FFE70099D6
:101F1000002081F83C00009800F038F8FFE70099B5
:101F2000022081F83D00009951F8040B00F0C8FE32
:101F30000099012081F84600FFE70099012081F80F
:101F40003E00009981F83F00009981F84000009917
:101F500081F84100FFE7FFE70099012081F8420086
:101F6000009981F84300009981F84400009981F8B4
:101F70004500FFE70099012081F83D0000208DF821
:101F80000700FFE79DF8070002B080BD81B0009018
:101F900001B0704781B0009001B0704780B582B049
:101FA00001900198006840F20041C4F201018842AA
:101FB00003D1FFE7FEF7F8FCFFE702B080BD0000A9
:101FC00081B0009001B0704782B00190ADF802106E
:101FD00002B0704781B0009001B0704780B592B0F8
:101FE0001190119800680068109011980068C068FE
:101FF0000F901198006840690E9000200D900C9091
:10200000109800F00F000D900D9888B9FFE79DF82B
:102010004000800600280AD5FFE79DF83C008006B6
:10202000002804D5FFE7119801F0C6F902E2FFE7A6
:102030000D98002800F0C280FFE79DF83800C00727
:1020400038B9FFE7BDF83C0010F4907F00F0B6808F
:10205000FFE79DF84000C00758B1FFE79DF83D003D
:10206000C00730B1FFE71199486C40F001004864A7
:10207000FFE79DF84000400700280BD5FFE79DF8DB
:102080003800C00730B1FFE71199486C40F00200FA
:102090004864FFE79DF84000800700280BD5FFE764
:1020A0009DF83800C00730B1FFE71199486C40F047
:1020B00004004864FFE79DF840000007002811D5A0
:1020C000FFE79DF83C008006002805D4FFE79DF857
:1020D0003800C00730B1FFE71199486C40F00800A4
:1020E0004864FFE71198406C002866D0FFE79DF830
:1020F0004000800600280AD5FFE79DF83C008006D6
:10210000002804D5FFE7119801F056F9FFE7119870
:1021100000684069C0F380100C901198406C000773
:10212000002804D4FFE70C9800283ED0FFE7119860
:1021300001F0E4F8119800684069400600282FD5A6
:10214000FFE7FFE7FFE71198006850E8050F20F070
:1021500040000B90FFE70B991198026842E80510C8
:102160000028F0D1FFE7FFE71198C06B98B1FFE7B7
:102170001198C16B43F2E120C0F600000865119888
:10218000C06BFEF7E1F928B1FFE71198C06B016D54
:102190008847FFE703E01198FFF71CFFFFE703E024
:1021A0001198FFF717FFFFE706E01198FFF712FFFE
:1021B000119900204864FFE7FFE73BE11198006BAD
:1021C000012840F01781FFE79DF84000C006002875
:1021D00040F11081FFE79DF83C00C006002840F167
:1021E0000981FFE7FFE700200A9011980068006866
:1021F0000A901198006840680A900A98FFE71198C1
:10220000006840694006002840F19A80FFE7119875
:10221000C06B00684068ADF82600BDF826000028B5
:1022200075D0FFE7BDF826001199898D88426EDAD6
:10223000FFE7BDF826001199C8851198C06BC069E9
:10224000B0F5807F58D0FFE7FFE7FFE711980068FF
:1022500050E8030F20F480700890FFE70899119868
:10226000026842E803100028F0D1FFE7FFE7FFE72C
:10227000FFE71198006850E8050F20F00100079073
:10228000FFE707991198026842E805100028F0D18D
:10229000FFE7FFE7FFE7FFE71198006850E8050F49
:1022A00020F040000690FFE706991198026842E886
:1022B00005100028F0D1FFE7FFE71199202081F8F1
:1022C0004200119900200863FFE7FFE711980068BA
:1022D00050E8030F20F010000590FFE705991198D2
:1022E000026842E803100028F0D1FFE7FFE71198E9
:1022F000C06BFEF7B3F8FFE711990220486311980D
:10230000818DC28D891A89B2FFF75EFE17E0BDF894
:1023100026001199898D884210D1FFE71198C06B72
:10232000C069B0F5807F08D1FFE7119902204863AA
:102330001198818DFFF748FEFFE7FFE7FFE779E09F
:102340001199888DC98D401AADF812001198C08D71
:1023500000284ED0FFE7BDF81200002849D0FFE763
:10236000FFE7FFE71198006850E8030F20F4907032
:102370000390FFE703991198026842E803100028D0
:10238000F0D1FFE7FFE7FFE7FFE71198006850E8AB
:10239000050F20F001000290FFE7029911980268F2
:1023A00042E805100028F0D1FFE7FFE7119920204F
:1023B00081F84200119900200863FFE7FFE71198B8
:1023C000006850E8030F20F010000190FFE701992A
:1023D0001198026842E803100028F0D1FFE7FFE7F8
:1023E0001199022048631198BDF81210FFF7ECFD17
:1023F000FFE71FE09DF84000000600280AD5FFE730
:102400009DF83C000006002804D5FFE7119801F074
:1024100057F90FE09DF84000400600280AD5FFE775
:102420009DF83C004006002804D5FFE7119800F015
:10243000AFFFFFE712B080BD80B582B0009000987A
:1024400020B9FFE701208DF8070040E0009880697F
:1024500008B1FFE700E0FFE7009890F8410040B9BD
:10246000FFE70099002081F84000009800F034F860
:10247000FFE70099242081F8410000980168C868AE
:1024800020F40050C860009801F04AF800980168F4
:10249000086920F49040086100980168486920F0BC
:1024A0002A00486100980168C86840F40050C8607C
:1024B000009900204864009A202182F84110009A77
:1024C00082F84210009948638DF80700FFE79DF8F5
:1024D000070002B080BD000080B590B00F900020D2
:1024E0000E900D900C900B900A900F98006841F29E
:1024F0000001C4F20101884257D1FFE7FFE7002045
:10250000099043F64400C4F20200016841F0100152
:102510000160006800F0100009900998FFE7FFE7EC
:102520000020089043F63000C4F20200016841F038
:1025300001010160006800F0010008900898FFE7C1
:102540004FF400700A90022001900B90002006903A
:102550000C90032002900D90072003900E90002015
:10256000C4F2020004900AA90591FEF70FF8DDF805
:1025700004C0029B039A049805994FF4806ECDF82D
:1025800028E0CDF82CC04FF0010CCDF830C00D93F1
:102590000E92FDF7FBFF069A252007901146FEF7E5
:1025A000CBFA0798FEF7BEFAFFE710B080BD000037
:1025B00080B584B002900191ADF80220029890F8A5
:1025C0004200202817D1FFE7019820B1FFE7BDF8AE
:1025D000020020B9FFE701208DF80F000FE00299FB
:1025E0000020086302980199BDF8022001F036F836
:1025F0008DF80F0003E002208DF80F00FFE79DF833
:102600000F0004B080BD000080B584B00390039833
:10261000006841F20001C4F20101884240F0CD801F
:10262000FFE740F27A60C2F20000007801460091B4
:1026300020B1FFE70098012835D0BCE040F270607F
:10264000C2F200000078A52818D1FFE740F27960B7
:10265000C2F200000122027040F27A61C2F200016F
:102660000A70017840F27060C2F20000014440F24A
:102670007810C2F20000FFF79BFF13E040F2796090
:10268000C2F2000000210170017840F27060C2F2D5
:102690000000014440F27810C2F200000122FFF76E
:1026A00087FFFFE788E040F27960C2F2000001781E
:1026B000013101700078082812DCFFE740F27960F0
:1026C000C2F20000017840F27060C2F200000144E2
:1026D00040F27810C2F200000122FFF769FF69E0C2
:1026E00040F27060C2F20000007A5A2842D1FFE73F
:1026F00000208DF80B0001200190FFE701980628CB
:1027000010DCFFE7019940F27060C2F20000415C0A
:102710009DF80B0008448DF80B00FFE7019801308D
:102720000190EBE79DF80B0040F27061C2F20001EE
:10273000C979884216D1FFE740F27060C2F200000A
:10274000D0F8012040F26861C2F200010A604279CB
:102750000A718079487140F26461C2F2000101207F
:10276000087006E040F26461C2F2000100200870C7
:10277000FFE706E040F26461C2F200010020087049
:10278000FFE740F27A60C2F200000021017040F2DF
:102790007960C2F200000170017840F27060C2F20C
:1027A0000000014440F27810C2F200000122FFF75D
:1027B000FFFEFFE700E0FFE7FFE704B080BD000099
:1027C00080B58AB008900791ADF81A2005930020D3
:1027D0000290089890F84100202840F08180FFE79F
:1027E000079820B1FFE7BDF81A0020B9FFE70120E4
:1027F0008DF8270078E00899002048640899212086
:1028000081F84100FEF7CAF80290BDF81A00089955
:102810008884BDF81A000899C88408988068B0F5C3
:10282000805F09D1FFE70898006928B9FFE7002019
:1028300004900798039004E0079804900020039008
:10284000FFE7FFE70898C08C78B3FFE70898029B82
:1028500005996A4611608021002200F07BFF40B19B
:10286000FFE70899202081F8410003208DF8270018
:102870003AE0049858B9FFE7039800886FF35F20A7
:1028800008990968486003980230039008E00498AA
:102890000078089909684860049801300490FFE7BF
:1028A0000899C88C0138C884CCE70898029B059920
:1028B0006A4611604021002200F04CFF40B1FFE762
:1028C0000899202081F8410003208DF827000BE0B3
:1028D0000899202081F8410000208DF8270003E0AE
:1028E00002208DF82700FFE79DF827000AB080BD81
:1028F00081B0009001B07047FFE7FEE780B58AB075
:10290000002009900890079006900590FFE70020AE
:10291000049043F63000C4F20200016841F08001E7
:102920000160006800F0800004900498FFE7FFE772
:102930000020039043F63000C4F20200016841F029
:1029400001010160006800F0010003900398FFE7B7
:102950000020C4F2020002904FF49871009100220E
:102960000192FEF703F8009A01990298059201225C
:1029700006920791089105A9FDF708FE0AB080BDEF
:1029800080B588B0002100910791069105910491CE
:102990000391029140F2A000C2F2000001900022D7
:1029A000C4F201020260A7224260816040F2E73275
:1029B000C260016141618161FEF7D4FE18B1FFE799
:1029C000FDF748FDFFE74FF48050049040F2A0006F
:1029D000C2F2000004A9FEF7DDFF18B1FFE7FDF722
:1029E00039FDFFE700200290039040F2A000C2F200
:1029F000000002A9FEF724FE18B1FFE7FDF72AFD4B
:102A0000FFE708B080BD000080B58EB000210091C6
:102A10000D910C910B910A910991089107910691E2
:102A20000591049103910291019140F2E800C2F2F4
:102A3000000040F20042C4F20002026053224260F1
:102A4000816040F2E732C260016180218161FEF75E
:102A500089FE18B1FFE7FDF7FDFCFFE74FF480505A
:102A60000A9040F2E800C2F200000AA9FEF792FFC5
:102A700018B1FFE7FDF7EEFCFFE740F2E800C2F215
:102A80000000FFF735FA18B1FFE7FDF7E3FCFFE7B9
:102A900000200890099040F2E800C2F2000008A966
:102AA000FEF7CEFD18B1FFE7FDF7D4FCFFE760208D
:102AB0000190002202920392059240F2E800C2F2D5
:102AC000000001A9FFF772F918B1FFE7FDF7C2FC9A
:102AD000FFE740F2E800C2F2000001A90422FFF77C
:102AE00065F918B1FFE7FDF7B5FCFFE740F2E80034
:102AF000C2F20000FFF722F90EB080BD80B582B0AF
:102B000040F27810C2F20000019041F20001C4F2DC
:102B1000010101604FF4E131416000218160C16039
:102B200001610C2242618161C161FFF785FC18B12E
:102B3000FFE7FDF78FFCFFE702B080BDFFE7FEE790
:102B4000FFE7FEE788B0079006910592079800F02E
:102B5000070004900498C0F10700052803D3FFE79D
:102B60000420019004E00498C0F107000190FFE701
:102B70000198039004980430062803D8FFE700204A
:102B8000009003E0049803380090FFE7009802905B
:102B900006980399012202FA01F101390840029BCB
:102BA000984005999A40013A1140084308B070478F
:102BB00070470000704700007047000080B594B077
:102BC00008A83021FDF7DEFB002007900690059055
:102BD00004900390FFE70020029043F64000C4F207
:102BE0000200016841F080510160006800F08050EF
:102BF00002900298FFE7FFE70020019047F20000F3
:102C0000C4F20000016841F480410160006800F4F2
:102C1000804001900198FFE7012008904FF4803038
:102C2000099002200E904FF480010F91192110910C
:102C30004FF4A871119112900420139008A8FEF788
:102C400097F918B1FFE7FDF705FCFFE70F200390A8
:102C500002200490002005904FF4A05006904FF4FD
:102C60008050079003A80521FDF788FF18B1FFE702
:102C7000FDF7F0FBFFE714B080BD00004EF6885171
:102C8000CEF20001086840F4700008607047000050
:102C900080B540F2A000C2F20000FEF741FF80BD07
:102CA00080B540F2E800C2F20000FEF739FF80BDB7
:102CB00080B540F23010C2F20000FEF731FF80BD57
:102CC00083B0029001910298006800900298002160
:102CD000C4F20101884225D0FFE70298B0F1804F8D
:102CE00020D0FFE7029840F20041C4F20001884280
:102CF00018D0FFE7029840F60001C4F200018842B4
:102D000010D0FFE7029840F60041C4F2000188426B
:102D100008D0FFE7029840F20041C4F20101884266
:102D20000AD1FFE7009820F07000009001984168F8
:102D3000009808430090FFE702980021C4F20101C7
:102D4000884255D0FFE70298B0F1804F50D0FFE79E
:102D5000029840F20041C4F20001884248D0FFE7E7
:102D6000029840F60001C4F20001884240D0FFE71B
:102D7000029840F60041C4F20001884238D0FFE7D3
:102D8000029840F20041C4F20101884230D0FFE7CE
:102D9000029844F20001C4F20101884228D0FFE702
:102DA000029844F20041C4F20101884220D0FFE7BA
:102DB000029844F60001C4F20101884218D0FFE7EE
:102DC000029841F60001C4F20001884210D0FFE7EA
:102DD000029841F60041C4F20001884208D0FFE7A2
:102DE000029842F20001C4F2000188420AD1FFE7D2
:102DF000009820F4407000900198C1680098084342
:102E00000090FFE7009820F080000199496908438D
:102E10000090019880680299C86201980068029940
:102E2000886202980021C4F20101884208D0FFE7BD
:102E3000029840F20041C4F20101884205D1FFE747
:102E40000198006902990863FFE70299086840F059
:102E50000400086002990120486100980299086006
:102E600003B0704785B004900391029201930498D7
:102E700080680090009820F47F40009003980299A9
:102E8000019A41EA0221014300980843009000980A
:102E90000499886005B0704783B002900191029850
:102EA00080680090009820F07000009001980099D0
:102EB000084340F00700009000980299886003B032
:102EC0007047000085B0049003910498006A019057
:102ED0000499086A20F00100086204984068009094
:102EE000049880690290029820F070000290029885
:102EF00020F00300029003980168029808430290B2
:102F0000019820F00200019003988168019808431D
:102F1000019004980021C4F20101884208D0FFE723
:102F2000049840F20041C4F2010188420ED1FFE74B
:102F3000019820F0080001900398C16801980843A7
:102F40000190019820F004000190FFE7049800210F
:102F5000C4F20101884208D0FFE7049840F2004122
:102F6000C4F20101884213D1FFE7009820F4807079
:102F70000090009820F40070009003984169009838
:102F80000843009003988169009808430090FFE788
:102F900000980499486002980499886103984068F1
:102FA0000499486301980499086205B070470000CD
:102FB00085B0049003910498006A01900499086A0E
:102FC00020F010000862049840680090049880691E
:102FD0000290029820F4E0400290029820F44070A1
:102FE000029003980168029840EA0120029001983B
:102FF00020F02000019003988168019840EA0110B8
:10300000019004980021C4F20101884208D0FFE732
:10301000049840F20041C4F2010188420FD1FFE759
:10302000019820F0800001900398C168019840EA5F
:1030300001100190019820F040000190FFE70498F2
:103040000021C4F20101884208D0FFE7049840F251
:103050000041C4F20101884215D1FFE7009820F435
:1030600080600090009820F400600090039841690F
:10307000009840EA8100009003988169009840EA36
:1030800081000090FFE70098049948600298049935
:1030900088610398406804998863019804990862DC
:1030A00005B0704785B0049003910498006A0190C0
:1030B0000499086A20F480700862049840680090BF
:1030C0000498C0690290029820F070000290029863
:1030D00020F00300029003980168029808430290D0
:1030E000019820F40070019003988168019840EAEB
:1030F0000120019004980021C4F20101884208D007
:10310000FFE7049840F20041C4F2010188420FD168
:10311000FFE7019820F4006001900398C1680198CE
:1031200040EA01200190019820F480600190FFE7BF
:1031300004980021C4F20101884208D0FFE70498F6
:1031400040F20041C4F20101884215D1FFE7009826
:1031500020F480500090009820F4005000900398D4
:103160004169009840EA0110009003988169009835
:1031700040EA01100090FFE7009804994860029827
:103180000499C861039840680499C8630198049938
:10319000086205B07047000085B004900391049860
:1031A000006A01900499086A20F48050086204982B
:1031B000406800900498C0690290029820F4E040B2
:1031C0000290029820F440700290039801680298DF
:1031D00040EA01200290019820F4005001900398E9
:1031E0008168019840EA0130019004980021C4F2FE
:1031F0000101884208D0FFE7049840F20041C4F280
:10320000010188420BD1FFE7009820F48040009034
:1032100003984169009840EA81100090FFE7009808
:103220000499486002980499C86103984068049919
:10323000086401980499086205B0704785B004904D
:10324000039102920498006A00900499086A20F0A1
:1032500001000862049880690190019820F0F00054
:1032600001900299019840EA01100190009820F025
:103270000A0000900399009808430090019804996F
:10328000886100980499086205B0704785B0049081
:10329000039102920498006A00900499086A20F051
:1032A00010000862049880690190019820F4704031
:1032B00001900299019840EA01300190009820F0B5
:1032C000A00000900399009840EA01100090019836
:1032D0000499886100980499086205B0704700005D
:1032E00080B582B001900198806B00900099002019
:1032F000C8850098FEF76EFE02B080BD84B00390D2
:10330000FFE7FFE70398006850E8030F20F4907090
:103310000290FFE702990398026842E80310002830
:10332000F0D1FFE7FFE7FFE7FFE70398006850E809
:10333000050F20F001000190FFE701990398026852
:1033400042E805100028F0D1FFE7FFE70398006B83
:10335000012814D1FFE7FFE7FFE70398006850E872
:10336000030F20F010000090FFE700990398026817
:1033700042E803100028F0D1FFE7FFE7FFE70399D9
:10338000202081F8420003990020086304B07047B0
:1033900080B582B0019001980168C86820F04000B3
:1033A000C8600199202081F841000198FFF7A0FA38
:1033B000002002B080BD000080B586B004900020DF
:1033C00003900290049890F84200222840F0A080D8
:1033D000FFE704988068B0F5805F13D1FFE7049899
:1033E000006978B9FFE70498806A02900498006841
:1033F00040686FF35F20029908800499886A023060
:10340000886223E00498806A039004988068B0F58D
:10341000805F08D0FFE70498806850B9FFE7049800
:10342000006930B9FFE704980068406803990870A4
:1034300007E004980068406800F07F000399087076
:10344000FFE70499886A01308862FFE70499C88D14
:103450000138C8850004002856D1FFE704980168A8
:10346000C86820F02000C86004980168C86820F48B
:103470008070C86004980168486920F001004861C4
:103480000499202081F842000499002048630498A0
:10349000006B012830D1FFE7049900200863FFE7A3
:1034A000FFE70498006850E8030F20F01000019037
:1034B000FFE701990498026842E803100028F0D160
:1034C000FFE7FFE7049800680068C00600280ED5F3
:1034D000FFE7FFE700200090049800680068009074
:1034E00004980068406800900098FFE7FFE70498A0
:1034F000818DFEF769FD03E00498FFF785F8FFE78B
:1035000000208DF8170007E000208DF8170003E079
:1035100002208DF81700FFE79DF8170006B080BD68
:1035200080B586B0059005980068006920F4405089
:10353000059A1168D26810430861059988680B697B
:103540004A69C96918431043084304900598006804
:10355000C06849F20C6188430499084305990968D9
:10356000C86005980068406920F44070059A1168A9
:103570009269104348610598006841F20001C4F265
:103580000101884209D0FFE70598006841F2004137
:10359000C4F20101884204D1FFE7FDF763FC039008
:1035A00003E0FDF74DFC0390FFE70598C069B0F517
:1035B000004F29D1FFE703981921A0FB0101059ACB
:1035C0001368029353685A00DB0FFCF763FE0299FD
:1035D000864648F21F53C5F2EB13AEFB03204209A7
:1035E00010014FF0640C02FB1CEC322202EBCC0207
:1035F000A2FB0332F82303EA521300EB4300C2F3A9
:1036000042121044886026E003981921A0FB0101B2
:10361000059A1368019353689A009B0FFCF73AFED2
:103620000199844648F21F52C5F2EB12ACFB0230FE
:103630004309642003FB10CC322000EB0C10A0FBEC
:103640000202F02000EA521000EB0310C2F3431212
:1036500010448860FFE706B080BD000083B0029090
:103660000191ADF80220019802998862BDF802002C
:1036700002998885BDF802000299C8850299002048
:1036800048640299222081F842000298006938B10A
:10369000FFE702980168C86840F48070C860FFE7DF
:1036A00002980168486940F0010048610298016889
:1036B000C86840F02000C860002003B070470000D8
:1036C00083B00190019890F8410021283AD1FFE79A
:1036D00001988068B0F5805F13D1FFE70198006919
:1036E00078B9FFE70198006A0090009800886FF3AE
:1036F0005F200199096848600199086A02300862F0
:1037000008E0019A106A411C116200780199096869
:103710004860FFE70199C88C0138C884000468B983
:10372000FFE701980168C86820F08000C860019830
:103730000168C86840F04000C860FFE700208DF8CD
:103740000B0003E002208DF80B00FFE79DF80B0053
:1037500003B0704780B586B0DDF820C004900391B7
:103760008DF80B200193FFE7049800680068039927
:103770000840401AB0FA80F040099DF80B108842CA
:103780004DD1FFE708980130002847D0FFE7FDF74B
:1037900005F90199401A0899884203D8FFE708986B
:1037A00020B9FFE703208DF817003CE0049800687B
:1037B000C0684007002830D5FFE7039880282CD048
:1037C000FFE70398402828D0FFE7049800680068C6
:1037D00000F008010120B0EBD10F1DD1FFE7FFE79A
:1037E0000020009004980068006800900498006829
:1037F000406800900098FFE70498FFF77FFD049968
:1038000008204864FFE70499002081F84000FFE7A2
:1038100001208DF8170006E0FFE7FFE7A4E700208E
:103820008DF81700FFE79DF8170006B080BD000077
:1038300080B540F27810C2F20000FEF7CFFB80BDE9
:10384000FFE7FEE781B08DF803009DF90300002833
:103850000ED4FFE79DF9031001F01F0201209040F4
:103860004A094EF20011CEF2000141F82200FFE7B2
:1038700001B070474EF60C50CEF200000068C0F365
:103880000220704782B08DF8070000919DF9070073
:1038900000280AD4FFE7009800019DF907104EF2B6
:1038A0000042CEF2000288540BE0009800019DF81F
:1038B000071001F00F014EF61452CEF200028854A8
:1038C000FFE702B07047000083B00290029800F05A
:1038D000070000904EF60C51CEF2000108680190EE
:1038E00001984FF6FF02104001900198009A40EABB
:1038F00002200022C0F2FA521043019001980860A1
:1039000003B0704780B582B000200190FDF75AF8EF
:10391000FFF754F9FEF7F2FFFFF732F8FFF774F8FC
:10392000FFF7ECF840F27960C2F20000017840F253
:103930007060C2F20000014440F27810C2F2000050
:103940000122FEF735FEFFE740F26460C2F200009C
:103950000078C8B1FFE70020C4F202001021FCF794
:10396000F1FF40F27810C2F2000040F27061C2F242
:10397000000109226423FEF723FF40F26461C2F2D2
:10398000000100200870FFE7DEE7F1EE100A4FF6B5
:10399000FF71C0F2C03120EA010040F04070E1EE5A
:1039A000100A70470000000000000000010203043C
:1039B00006070809000000000102030401000101DC
:1039C00040000000C0010020C0050020400600208B
:1039D00000000000003A0008000000204000000045
:1039E000EC010008403A000840000020400C0000B4
:1039F0000C020008000000000000000000000000B1
:103A00000024F4000100000010000000000000008D
:103A100000000000000000000000000000000000A6
:103A20000000000000000000000000000000000096
:103A30000000000000000000000000000000000086
:040000050800018965
:00000001FF
